{
  "transactions": [
    {
      "hash": "0x3b5ae33e5174101fd27c5f4e2bd59f9f342ca0c45140e495d91ce3d49758fda4",
      "transactionType": "CALL",
      "contractName": null,
      "contractAddress": "0xceb8cf3b5dafa5c25a00df7c4aaca704302c14d2",
      "function": "applyChainUpdates((uint64,bool,bytes,bytes,(bool,uint128,uint128),(bool,uint128,uint128))[])",
      "arguments": [
        "[(16015286601757825753, true, 0x00000000000000000000000012cb4945d866c83ce281f899b849e8e75588234c, 0x000000000000000000000000b5d32fbba0dfbe87c34d9b8a5718caa703736874, (true, 1000000000000000000000000, 1000000000000000000), (true, 1000000000000000000000000, 1000000000000000000)), (10344971235874465080, true, 0x000000000000000000000000ceb8cf3b5dafa5c25a00df7c4aaca704302c14d2, 0x000000000000000000000000d2c7b8e20dae20ff8153b144da21b7b67e46f97a, (true, 1000000000000000000000000, 1000000000000000000), (true, 1000000000000000000000000, 1000000000000000000))]"
      ],
      "transaction": {
        "from": "0x7789884c5c88ae84775f266045b96fd6cb5c734b",
        "to": "0xceb8cf3b5dafa5c25a00df7c4aaca704302c14d2",
        "gas": "0xacb48",
        "value": "0x0",
        "input": "0xdb6327dc0000000000000000000000000000000000000000000000000000000000000020000000000000000000000000000000000000000000000000000000000000000200000000000000000000000000000000000000000000000000000000000000400000000000000000000000000000000000000000000000000000000000000200000000000000000000000000000000000000000000000000de41ba4fc9d91ad9000000000000000000000000000000000000000000000000000000000000000100000000000000000000000000000000000000000000000000000000000001400000000000000000000000000000000000000000000000000000000000000180000000000000000000000000000000000000000000000000000000000000000100000000000000000000000000000000000000000000d3c21bcecceda10000000000000000000000000000000000000000000000000000000de0b6b3a7640000000000000000000000000000000000000000000000000000000000000000000100000000000000000000000000000000000000000000d3c21bcecceda10000000000000000000000000000000000000000000000000000000de0b6b3a7640000000000000000000000000000000000000000000000000000000000000000002000000000000000000000000012cb4945d866c83ce281f899b849e8e75588234c0000000000000000000000000000000000000000000000000000000000000020000000000000000000000000b5d32fbba0dfbe87c34d9b8a5718caa7037368740000000000000000000000000000000000000000000000008f90b8876dee6538000000000000000000000000000000000000000000000000000000000000000100000000000000000000000000000000000000000000000000000000000001400000000000000000000000000000000000000000000000000000000000000180000000000000000000000000000000000000000000000000000000000000000100000000000000000000000000000000000000000000d3c21bcecceda10000000000000000000000000000000000000000000000000000000de0b6b3a7640000000000000000000000000000000000000000000000000000000000000000000100000000000000000000000000000000000000000000d3c21bcecceda10000000000000000000000000000000000000000000000000000000de0b6b3a76400000000000000000000000000000000000000000000000000000000000000000020000000000000000000000000ceb8cf3b5dafa5c25a00df7c4aaca704302c14d20000000000000000000000000000000000000000000000000000000000000020000000000000000000000000d2c7b8e20dae20ff8153b144da21b7b67e46f97a",
        "nonce": "0xc7",
        "chainId": "0x66eee"
      },
      "additionalContracts": [],
      "isFixedGasLimit": false
    }
  ],
  "receipts": [
    {
      "status": "0x1",
      "cumulativeGasUsed": "0x83857",
      "logs": [
        {
          "address": "0xceb8cf3b5dafa5c25a00df7c4aaca704302c14d2",
          "topics": [
            "0x8d340f17e19058004c20453540862a9c62778504476f6756755cb33bcd6c38c2"
          ],
          "data": "0x000000000000000000000000000000000000000000000000de41ba4fc9d91ad90000000000000000000000000000000000000000000000000000000000000100000000000000000000000000000000000000000000000000000000000000000100000000000000000000000000000000000000000000d3c21bcecceda10000000000000000000000000000000000000000000000000000000de0b6b3a7640000000000000000000000000000000000000000000000000000000000000000000100000000000000000000000000000000000000000000d3c21bcecceda10000000000000000000000000000000000000000000000000000000de0b6b3a76400000000000000000000000000000000000000000000000000000000000000000020000000000000000000000000b5d32fbba0dfbe87c34d9b8a5718caa703736874",
          "blockHash": "0x8dbdbb92d72a4fd96733efcf2bb955366495ca0ab82c650d2a6150dd781d3d87",
          "blockNumber": "0xd20dc66",
          "blockTimestamp": "0x692b6d28",
          "transactionHash": "0x3b5ae33e5174101fd27c5f4e2bd59f9f342ca0c45140e495d91ce3d49758fda4",
          "transactionIndex": "0x1",
          "logIndex": "0x0",
          "removed": false
        },
        {
          "address": "0xceb8cf3b5dafa5c25a00df7c4aaca704302c14d2",
          "topics": [
            "0x8d340f17e19058004c20453540862a9c62778504476f6756755cb33bcd6c38c2"
          ],
          "data": "0x0000000000000000000000000000000000000000000000008f90b8876dee65380000000000000000000000000000000000000000000000000000000000000100000000000000000000000000000000000000000000000000000000000000000100000000000000000000000000000000000000000000d3c21bcecceda10000000000000000000000000000000000000000000000000000000de0b6b3a7640000000000000000000000000000000000000000000000000000000000000000000100000000000000000000000000000000000000000000d3c21bcecceda10000000000000000000000000000000000000000000000000000000de0b6b3a76400000000000000000000000000000000000000000000000000000000000000000020000000000000000000000000d2c7b8e20dae20ff8153b144da21b7b67e46f97a",
          "blockHash": "0x8dbdbb92d72a4fd96733efcf2bb955366495ca0ab82c650d2a6150dd781d3d87",
          "blockNumber": "0xd20dc66",
          "blockTimestamp": "0x692b6d28",
          "transactionHash": "0x3b5ae33e5174101fd27c5f4e2bd59f9f342ca0c45140e495d91ce3d49758fda4",
          "transactionIndex": "0x1",
          "logIndex": "0x1",
          "removed": false
        }
      ],
      "logsBloom": "0x00000000000000400000000000000000000000000000000000000000000000000000000000000000000000000000000000000000000000000004000000000000000000000000000000000000000000000000000000000000000000000000000000000000000000000000000000000000000000000000000000000000000000000000000000000000000000000000020000000000000000100000000000000000000000000000000000000000000000000000000000000000000000000000000000000000000000000000000000000000000000000000000000000000000000000000000000000000000000000000000000000000000800000100000000000000",
      "type": "0x2",
      "transactionHash": "0x3b5ae33e5174101fd27c5f4e2bd59f9f342ca0c45140e495d91ce3d49758fda4",
      "transactionIndex": "0x1",
      "blockHash": "0x8dbdbb92d72a4fd96733efcf2bb955366495ca0ab82c650d2a6150dd781d3d87",
      "blockNumber": "0xd20dc66",
      "gasUsed": "0x83857",
      "effectiveGasPrice": "0x1312d00",
      "from": "0x7789884c5c88ae84775f266045b96fd6cb5c734b",
      "to": "0xceb8cf3b5dafa5c25a00df7c4aaca704302c14d2",
      "contractAddress": null,
      "gasUsedForL1": "0x0",
      "l1BlockNumber": "0x948846",
      "timeboosted": false
    }
  ],
  "libraries": [],
  "pending": [],
  "returns": {},
  "timestamp": 1764453673520,
  "chain": 421614,
  "commit": "e3cf2b1"
}