{
  "transactions": [
    {
      "hash": "0x15a9d345a832a914e3ca5eccd793bc254de19b6d30e144ab591dae363169dc21",
      "transactionType": "CALL",
      "contractName": null,
      "contractAddress": "0x1249b5954ee762e9940587d720d43a67f902b834",
      "function": "applyChainUpdates((uint64,bool,bytes,bytes,(bool,uint128,uint128),(bool,uint128,uint128))[])",
      "arguments": [
        "[(16015286601757825753, true, 0x0000000000000000000000001249b5954ee762e9940587d720d43a67f902b834, 0x000000000000000000000000b6a9f9b4dcf013c1255c4efae196a89ddc3944a3, (true, 1000000000000000000000000, 167), (true, 1000000000000000000000000, 167)), (10344971235874465080, true, 0x000000000000000000000000e315bb6ab55154e3d13468e59b668cbacc81a936, 0x000000000000000000000000593347e55d5a7deb7792108a3eb5c8bd6bb8eecc, (true, 1000000000000000000000000, 167), (true, 1000000000000000000000000, 167))]"
      ],
      "transaction": {
        "from": "0x7789884c5c88ae84775f266045b96fd6cb5c734b",
        "to": "0x1249b5954ee762e9940587d720d43a67f902b834",
        "gas": "0xaca1d",
        "value": "0x0",
        "input": "0xdb6327dc0000000000000000000000000000000000000000000000000000000000000020000000000000000000000000000000000000000000000000000000000000000200000000000000000000000000000000000000000000000000000000000000400000000000000000000000000000000000000000000000000000000000000200000000000000000000000000000000000000000000000000de41ba4fc9d91ad9000000000000000000000000000000000000000000000000000000000000000100000000000000000000000000000000000000000000000000000000000001400000000000000000000000000000000000000000000000000000000000000180000000000000000000000000000000000000000000000000000000000000000100000000000000000000000000000000000000000000d3c21bcecceda100000000000000000000000000000000000000000000000000000000000000000000a7000000000000000000000000000000000000000000000000000000000000000100000000000000000000000000000000000000000000d3c21bcecceda100000000000000000000000000000000000000000000000000000000000000000000a700000000000000000000000000000000000000000000000000000000000000200000000000000000000000001249b5954ee762e9940587d720d43a67f902b8340000000000000000000000000000000000000000000000000000000000000020000000000000000000000000b6a9f9b4dcf013c1255c4efae196a89ddc3944a30000000000000000000000000000000000000000000000008f90b8876dee6538000000000000000000000000000000000000000000000000000000000000000100000000000000000000000000000000000000000000000000000000000001400000000000000000000000000000000000000000000000000000000000000180000000000000000000000000000000000000000000000000000000000000000100000000000000000000000000000000000000000000d3c21bcecceda100000000000000000000000000000000000000000000000000000000000000000000a7000000000000000000000000000000000000000000000000000000000000000100000000000000000000000000000000000000000000d3c21bcecceda100000000000000000000000000000000000000000000000000000000000000000000a70000000000000000000000000000000000000000000000000000000000000020000000000000000000000000e315bb6ab55154e3d13468e59b668cbacc81a9360000000000000000000000000000000000000000000000000000000000000020000000000000000000000000593347e55d5a7deb7792108a3eb5c8bd6bb8eecc",
        "nonce": "0xa0",
        "chainId": "0x66eee"
      },
      "additionalContracts": [],
      "isFixedGasLimit": false
    }
  ],
  "receipts": [
    {
      "status": "0x1",
      "cumulativeGasUsed": "0xa8af8",
      "logs": [
        {
          "address": "0x1249b5954ee762e9940587d720d43a67f902b834",
          "topics": [
            "0x8d340f17e19058004c20453540862a9c62778504476f6756755cb33bcd6c38c2"
          ],
          "data": "0x000000000000000000000000000000000000000000000000de41ba4fc9d91ad90000000000000000000000000000000000000000000000000000000000000100000000000000000000000000000000000000000000000000000000000000000100000000000000000000000000000000000000000000d3c21bcecceda100000000000000000000000000000000000000000000000000000000000000000000a7000000000000000000000000000000000000000000000000000000000000000100000000000000000000000000000000000000000000d3c21bcecceda100000000000000000000000000000000000000000000000000000000000000000000a70000000000000000000000000000000000000000000000000000000000000020000000000000000000000000b6a9f9b4dcf013c1255c4efae196a89ddc3944a3",
          "blockHash": "0x4ae7883a9dbbc4a5910d561cc486169907f07687e4c3b5fd7fa1943a70f64f8b",
          "blockNumber": "0xce30e6a",
          "transactionHash": "0x15a9d345a832a914e3ca5eccd793bc254de19b6d30e144ab591dae363169dc21",
          "transactionIndex": "0x3",
          "logIndex": "0x4",
          "removed": false
        },
        {
          "address": "0x1249b5954ee762e9940587d720d43a67f902b834",
          "topics": [
            "0x8d340f17e19058004c20453540862a9c62778504476f6756755cb33bcd6c38c2"
          ],
          "data": "0x0000000000000000000000000000000000000000000000008f90b8876dee65380000000000000000000000000000000000000000000000000000000000000100000000000000000000000000000000000000000000000000000000000000000100000000000000000000000000000000000000000000d3c21bcecceda100000000000000000000000000000000000000000000000000000000000000000000a7000000000000000000000000000000000000000000000000000000000000000100000000000000000000000000000000000000000000d3c21bcecceda100000000000000000000000000000000000000000000000000000000000000000000a70000000000000000000000000000000000000000000000000000000000000020000000000000000000000000593347e55d5a7deb7792108a3eb5c8bd6bb8eecc",
          "blockHash": "0x4ae7883a9dbbc4a5910d561cc486169907f07687e4c3b5fd7fa1943a70f64f8b",
          "blockNumber": "0xce30e6a",
          "transactionHash": "0x15a9d345a832a914e3ca5eccd793bc254de19b6d30e144ab591dae363169dc21",
          "transactionIndex": "0x3",
          "logIndex": "0x5",
          "removed": false
        }
      ],
      "logsBloom": "0x00000000000000400000000000000000000000000000000000000008000000000000000000000000000000040000000000000000000000000004000000000000000000000000000000000000000000000000000000000000000000000000000000000000000000000000000000000000000000000000000000000000000000000000000000000000000000000000000000000000000000000000000000000000000000000000000000000000000000000000000000000000000000000000000000000000000000000000000000000000000000000000000000000000000000000004000000000000000000000000000000000000000000000100000000000000",
      "type": "0x2",
      "transactionHash": "0x15a9d345a832a914e3ca5eccd793bc254de19b6d30e144ab591dae363169dc21",
      "transactionIndex": "0x3",
      "blockHash": "0x4ae7883a9dbbc4a5910d561cc486169907f07687e4c3b5fd7fa1943a70f64f8b",
      "blockNumber": "0xce30e6a",
      "gasUsed": "0x83773",
      "effectiveGasPrice": "0x5f5e100",
      "from": "0x7789884c5c88ae84775f266045b96fd6cb5c734b",
      "to": "0x1249b5954ee762e9940587d720d43a67f902b834",
      "contractAddress": null,
      "gasUsedForL1": "0x0",
      "l1BlockNumber": "0x933da6",
      "timeboosted": false
    }
  ],
  "libraries": [],
  "pending": [],
  "returns": {},
  "timestamp": 1763397551280,
  "chain": 421614,
  "commit": "6e57a2f"
}