{
  "transactions": [
    {
      "hash": "0x18beebf619e12849269309f510e5e45ab15384fb099862f019c8fb24e8879da7",
      "transactionType": "CALL",
      "contractName": null,
      "contractAddress": "0xb0cb10e3872a9f955758893e135a0c3579ea0187",
      "function": "applyChainUpdates((uint64,bool,bytes,bytes,(bool,uint128,uint128),(bool,uint128,uint128))[])",
      "arguments": [
        "[(16015286601757825753, true, 0x00000000000000000000000098c7955fabb14d83d874b516f4c849f4e1fa0a7b, 0x000000000000000000000000137069814752e36456571835c4eb341bfc9f70cf, (true, 1000000000000000000000000, 167), (true, 1000000000000000000000000, 167)), (10344971235874465080, true, 0x00000000000000000000000042745e532f1e35154e42dbaa8402f4abe3ffbc97, 0x00000000000000000000000066a55f63f8efa41d791bd747608556791443ccd2, (true, 1000000000000000000000000, 167), (true, 1000000000000000000000000, 167))]"
      ],
      "transaction": {
        "from": "0x7789884c5c88ae84775f266045b96fd6cb5c734b",
        "to": "0xb0cb10e3872a9f955758893e135a0c3579ea0187",
        "gas": "0xaca1d",
        "value": "0x0",
        "input": "0xdb6327dc0000000000000000000000000000000000000000000000000000000000000020000000000000000000000000000000000000000000000000000000000000000200000000000000000000000000000000000000000000000000000000000000400000000000000000000000000000000000000000000000000000000000000200000000000000000000000000000000000000000000000000de41ba4fc9d91ad9000000000000000000000000000000000000000000000000000000000000000100000000000000000000000000000000000000000000000000000000000001400000000000000000000000000000000000000000000000000000000000000180000000000000000000000000000000000000000000000000000000000000000100000000000000000000000000000000000000000000d3c21bcecceda100000000000000000000000000000000000000000000000000000000000000000000a7000000000000000000000000000000000000000000000000000000000000000100000000000000000000000000000000000000000000d3c21bcecceda100000000000000000000000000000000000000000000000000000000000000000000a7000000000000000000000000000000000000000000000000000000000000002000000000000000000000000098c7955fabb14d83d874b516f4c849f4e1fa0a7b0000000000000000000000000000000000000000000000000000000000000020000000000000000000000000137069814752e36456571835c4eb341bfc9f70cf0000000000000000000000000000000000000000000000008f90b8876dee6538000000000000000000000000000000000000000000000000000000000000000100000000000000000000000000000000000000000000000000000000000001400000000000000000000000000000000000000000000000000000000000000180000000000000000000000000000000000000000000000000000000000000000100000000000000000000000000000000000000000000d3c21bcecceda100000000000000000000000000000000000000000000000000000000000000000000a7000000000000000000000000000000000000000000000000000000000000000100000000000000000000000000000000000000000000d3c21bcecceda100000000000000000000000000000000000000000000000000000000000000000000a7000000000000000000000000000000000000000000000000000000000000002000000000000000000000000042745e532f1e35154e42dbaa8402f4abe3ffbc97000000000000000000000000000000000000000000000000000000000000002000000000000000000000000066a55f63f8efa41d791bd747608556791443ccd2",
        "nonce": "0x74",
        "chainId": "0x66eee"
      },
      "additionalContracts": [],
      "isFixedGasLimit": false
    }
  ],
  "receipts": [
    {
      "status": "0x1",
      "cumulativeGasUsed": "0x83773",
      "logs": [
        {
          "address": "0xb0cb10e3872a9f955758893e135a0c3579ea0187",
          "topics": [
            "0x8d340f17e19058004c20453540862a9c62778504476f6756755cb33bcd6c38c2"
          ],
          "data": "0x000000000000000000000000000000000000000000000000de41ba4fc9d91ad90000000000000000000000000000000000000000000000000000000000000100000000000000000000000000000000000000000000000000000000000000000100000000000000000000000000000000000000000000d3c21bcecceda100000000000000000000000000000000000000000000000000000000000000000000a7000000000000000000000000000000000000000000000000000000000000000100000000000000000000000000000000000000000000d3c21bcecceda100000000000000000000000000000000000000000000000000000000000000000000a70000000000000000000000000000000000000000000000000000000000000020000000000000000000000000137069814752e36456571835c4eb341bfc9f70cf",
          "blockHash": "0x8d1390e6c2c6babfeb378bd81a5bc13b34cd74cd29251f6f21f0d73bf57a5c41",
          "blockNumber": "0xcc412cd",
          "transactionHash": "0x18beebf619e12849269309f510e5e45ab15384fb099862f019c8fb24e8879da7",
          "transactionIndex": "0x1",
          "logIndex": "0x0",
          "removed": false
        },
        {
          "address": "0xb0cb10e3872a9f955758893e135a0c3579ea0187",
          "topics": [
            "0x8d340f17e19058004c20453540862a9c62778504476f6756755cb33bcd6c38c2"
          ],
          "data": "0x0000000000000000000000000000000000000000000000008f90b8876dee65380000000000000000000000000000000000000000000000000000000000000100000000000000000000000000000000000000000000000000000000000000000100000000000000000000000000000000000000000000d3c21bcecceda100000000000000000000000000000000000000000000000000000000000000000000a7000000000000000000000000000000000000000000000000000000000000000100000000000000000000000000000000000000000000d3c21bcecceda100000000000000000000000000000000000000000000000000000000000000000000a7000000000000000000000000000000000000000000000000000000000000002000000000000000000000000066a55f63f8efa41d791bd747608556791443ccd2",
          "blockHash": "0x8d1390e6c2c6babfeb378bd81a5bc13b34cd74cd29251f6f21f0d73bf57a5c41",
          "blockNumber": "0xcc412cd",
          "transactionHash": "0x18beebf619e12849269309f510e5e45ab15384fb099862f019c8fb24e8879da7",
          "transactionIndex": "0x1",
          "logIndex": "0x1",
          "removed": false
        }
      ],
      "logsBloom": "0x00000000000000400000000000000000000000000000000000000000000000000000000000000080000000000000000000000000000000000004000000000000000000000004200000000000000000000000000000000000000000000000000000000000000000000000000000000000000000000000000000000000000000000000000000000000000000000000000000000000000000000000000000000000000000000000000000000000000000000000000000000000000000000000000000000000000000000000000000000000000000000000000000000000000000000000000000000000000000000000000000000000000000000100000000000000",
      "type": "0x2",
      "transactionHash": "0x18beebf619e12849269309f510e5e45ab15384fb099862f019c8fb24e8879da7",
      "transactionIndex": "0x1",
      "blockHash": "0x8d1390e6c2c6babfeb378bd81a5bc13b34cd74cd29251f6f21f0d73bf57a5c41",
      "blockNumber": "0xcc412cd",
      "gasUsed": "0x83773",
      "effectiveGasPrice": "0x5f5e100",
      "from": "0x7789884c5c88ae84775f266045b96fd6cb5c734b",
      "to": "0xb0cb10e3872a9f955758893e135a0c3579ea0187",
      "contractAddress": null,
      "gasUsedForL1": "0x0",
      "l1BlockNumber": "0x929c22",
      "timeboosted": false
    }
  ],
  "libraries": [],
  "pending": [],
  "returns": {},
  "timestamp": 1762879949515,
  "chain": 421614,
  "commit": "98074a6"
}