{
  "transactions": [
    {
      "hash": null,
      "transactionType": "CALL",
      "contractName": null,
      "contractAddress": "0x42745e532f1e35154e42dbaa8402f4abe3ffbc97",
      "function": "applyChainUpdates((uint64,bool,bytes,bytes,(bool,uint128,uint128),(bool,uint128,uint128))[])",
      "arguments": [
        "[(16015286601757825753, true, 0x00000000000000000000000098c7955fabb14d83d874b516f4c849f4e1fa0a7b, 0x000000000000000000000000137069814752e36456571835c4eb341bfc9f70cf, (true, 1000000000000000000000000, 167), (true, 1000000000000000000000000, 167)), (3478487238524512106, true, 0x000000000000000000000000b0cb10e3872a9f955758893e135a0c3579ea0187, 0x0000000000000000000000003c887dab595c53a6d2093ac82a400f41062d734c, (true, 1000000000000000000000000, 167), (true, 1000000000000000000000000, 167))]"
      ],
      "transaction": {
        "from": "0x7789884c5c88ae84775f266045b96fd6cb5c734b",
        "to": "0x42745e532f1e35154e42dbaa8402f4abe3ffbc97",
        "gas": "0xc044a",
        "value": "0x0",
        "input": "0xdb6327dc0000000000000000000000000000000000000000000000000000000000000020000000000000000000000000000000000000000000000000000000000000000200000000000000000000000000000000000000000000000000000000000000400000000000000000000000000000000000000000000000000000000000000200000000000000000000000000000000000000000000000000de41ba4fc9d91ad9000000000000000000000000000000000000000000000000000000000000000100000000000000000000000000000000000000000000000000000000000001400000000000000000000000000000000000000000000000000000000000000180000000000000000000000000000000000000000000000000000000000000000100000000000000000000000000000000000000000000d3c21bcecceda100000000000000000000000000000000000000000000000000000000000000000000a7000000000000000000000000000000000000000000000000000000000000000100000000000000000000000000000000000000000000d3c21bcecceda100000000000000000000000000000000000000000000000000000000000000000000a7000000000000000000000000000000000000000000000000000000000000002000000000000000000000000098c7955fabb14d83d874b516f4c849f4e1fa0a7b0000000000000000000000000000000000000000000000000000000000000020000000000000000000000000137069814752e36456571835c4eb341bfc9f70cf000000000000000000000000000000000000000000000000304611b6affba76a000000000000000000000000000000000000000000000000000000000000000100000000000000000000000000000000000000000000000000000000000001400000000000000000000000000000000000000000000000000000000000000180000000000000000000000000000000000000000000000000000000000000000100000000000000000000000000000000000000000000d3c21bcecceda100000000000000000000000000000000000000000000000000000000000000000000a7000000000000000000000000000000000000000000000000000000000000000100000000000000000000000000000000000000000000d3c21bcecceda100000000000000000000000000000000000000000000000000000000000000000000a70000000000000000000000000000000000000000000000000000000000000020000000000000000000000000b0cb10e3872a9f955758893e135a0c3579ea018700000000000000000000000000000000000000000000000000000000000000200000000000000000000000003c887dab595c53a6d2093ac82a400f41062d734c",
        "nonce": "0x52",
        "chainId": "0x14a34"
      },
      "additionalContracts": [],
      "isFixedGasLimit": false
    }
  ],
  "receipts": [],
  "libraries": [],
  "pending": [],
  "returns": {},
  "timestamp": 1762880080223,
  "chain": 84532,
  "commit": "98074a6"
}