{
  "transactions": [
    {
      "hash": "0xa2b8152dfe99cf39669b6c04f15bf0a5af87a4609fc03efb773ce6abcaa9f86d",
      "transactionType": "CALL",
      "contractName": null,
      "contractAddress": "0xceb8cf3b5dafa5c25a00df7c4aaca704302c14d2",
      "function": "applyChainUpdates((uint64,bool,bytes,bytes,(bool,uint128,uint128),(bool,uint128,uint128))[])",
      "arguments": [
        "[(16015286601757825753, true, 0x00000000000000000000000012cb4945d866c83ce281f899b849e8e75588234c, 0x000000000000000000000000b5d32fbba0dfbe87c34d9b8a5718caa703736874, (true, 1000000000000000000000000, 1000000000000000000), (true, 1000000000000000000000000, 1000000000000000000)), (3478487238524512106, true, 0x000000000000000000000000ceb8cf3b5dafa5c25a00df7c4aaca704302c14d2, 0x000000000000000000000000d2c7b8e20dae20ff8153b144da21b7b67e46f97a, (true, 1000000000000000000000000, 1000000000000000000), (true, 1000000000000000000000000, 1000000000000000000))]"
      ],
      "transaction": {
        "from": "0x7789884c5c88ae84775f266045b96fd6cb5c734b",
        "to": "0xceb8cf3b5dafa5c25a00df7c4aaca704302c14d2",
        "gas": "0xb5a9e",
        "value": "0x0",
        "input": "0xdb6327dc0000000000000000000000000000000000000000000000000000000000000020000000000000000000000000000000000000000000000000000000000000000200000000000000000000000000000000000000000000000000000000000000400000000000000000000000000000000000000000000000000000000000000200000000000000000000000000000000000000000000000000de41ba4fc9d91ad9000000000000000000000000000000000000000000000000000000000000000100000000000000000000000000000000000000000000000000000000000001400000000000000000000000000000000000000000000000000000000000000180000000000000000000000000000000000000000000000000000000000000000100000000000000000000000000000000000000000000d3c21bcecceda10000000000000000000000000000000000000000000000000000000de0b6b3a7640000000000000000000000000000000000000000000000000000000000000000000100000000000000000000000000000000000000000000d3c21bcecceda10000000000000000000000000000000000000000000000000000000de0b6b3a7640000000000000000000000000000000000000000000000000000000000000000002000000000000000000000000012cb4945d866c83ce281f899b849e8e75588234c0000000000000000000000000000000000000000000000000000000000000020000000000000000000000000b5d32fbba0dfbe87c34d9b8a5718caa703736874000000000000000000000000000000000000000000000000304611b6affba76a000000000000000000000000000000000000000000000000000000000000000100000000000000000000000000000000000000000000000000000000000001400000000000000000000000000000000000000000000000000000000000000180000000000000000000000000000000000000000000000000000000000000000100000000000000000000000000000000000000000000d3c21bcecceda10000000000000000000000000000000000000000000000000000000de0b6b3a7640000000000000000000000000000000000000000000000000000000000000000000100000000000000000000000000000000000000000000d3c21bcecceda10000000000000000000000000000000000000000000000000000000de0b6b3a76400000000000000000000000000000000000000000000000000000000000000000020000000000000000000000000ceb8cf3b5dafa5c25a00df7c4aaca704302c14d20000000000000000000000000000000000000000000000000000000000000020000000000000000000000000d2c7b8e20dae20ff8153b144da21b7b67e46f97a",
        "nonce": "0xc7",
        "chainId": "0x14a34"
      },
      "additionalContracts": [],
      "isFixedGasLimit": false
    }
  ],
  "receipts": [
    {
      "status": "0x1",
      "cumulativeGasUsed": "0xa004b0",
      "logs": [
        {
          "address": "0xceb8cf3b5dafa5c25a00df7c4aaca704302c14d2",
          "topics": [
            "0x8d340f17e19058004c20453540862a9c62778504476f6756755cb33bcd6c38c2"
          ],
          "data": "0x000000000000000000000000000000000000000000000000de41ba4fc9d91ad90000000000000000000000000000000000000000000000000000000000000100000000000000000000000000000000000000000000000000000000000000000100000000000000000000000000000000000000000000d3c21bcecceda10000000000000000000000000000000000000000000000000000000de0b6b3a7640000000000000000000000000000000000000000000000000000000000000000000100000000000000000000000000000000000000000000d3c21bcecceda10000000000000000000000000000000000000000000000000000000de0b6b3a76400000000000000000000000000000000000000000000000000000000000000000020000000000000000000000000b5d32fbba0dfbe87c34d9b8a5718caa703736874",
          "blockHash": "0x31535b62c4abcaf30f977f54bb261dd558df0d2837f3ef8bf89bd6a02a4373a5",
          "blockNumber": "0x20c074d",
          "blockTimestamp": "0x692b6d7a",
          "transactionHash": "0xa2b8152dfe99cf39669b6c04f15bf0a5af87a4609fc03efb773ce6abcaa9f86d",
          "transactionIndex": "0x10",
          "logIndex": "0x38",
          "removed": false
        },
        {
          "address": "0xceb8cf3b5dafa5c25a00df7c4aaca704302c14d2",
          "topics": [
            "0x8d340f17e19058004c20453540862a9c62778504476f6756755cb33bcd6c38c2"
          ],
          "data": "0x000000000000000000000000000000000000000000000000304611b6affba76a0000000000000000000000000000000000000000000000000000000000000100000000000000000000000000000000000000000000000000000000000000000100000000000000000000000000000000000000000000d3c21bcecceda10000000000000000000000000000000000000000000000000000000de0b6b3a7640000000000000000000000000000000000000000000000000000000000000000000100000000000000000000000000000000000000000000d3c21bcecceda10000000000000000000000000000000000000000000000000000000de0b6b3a76400000000000000000000000000000000000000000000000000000000000000000020000000000000000000000000d2c7b8e20dae20ff8153b144da21b7b67e46f97a",
          "blockHash": "0x31535b62c4abcaf30f977f54bb261dd558df0d2837f3ef8bf89bd6a02a4373a5",
          "blockNumber": "0x20c074d",
          "blockTimestamp": "0x692b6d7a",
          "transactionHash": "0xa2b8152dfe99cf39669b6c04f15bf0a5af87a4609fc03efb773ce6abcaa9f86d",
          "transactionIndex": "0x10",
          "logIndex": "0x39",
          "removed": false
        }
      ],
      "logsBloom": "0x00000000000000400000000000000000000000000000000000000000000000000000000000000000000000000000000000000000000000000004000000000000000000000000000000000000000000000000000000000000000000000000000000000000000000000000000000000000000000000000000000000000000000000000000000000000000000000000020000000000000000100000000000000000000000000000000000000000000000000000000000000000000000000000000000000000000000000000000000000000000000000000000000000000000000000000000000000000000000000000000000000000000800000100000000000000",
      "type": "0x2",
      "transactionHash": "0xa2b8152dfe99cf39669b6c04f15bf0a5af87a4609fc03efb773ce6abcaa9f86d",
      "transactionIndex": "0x10",
      "blockHash": "0x31535b62c4abcaf30f977f54bb261dd558df0d2837f3ef8bf89bd6a02a4373a5",
      "blockNumber": "0x20c074d",
      "gasUsed": "0x83857",
      "effectiveGasPrice": "0x126218",
      "blobGasUsed": "0x11238",
      "from": "0x7789884c5c88ae84775f266045b96fd6cb5c734b",
      "to": "0xceb8cf3b5dafa5c25a00df7c4aaca704302c14d2",
      "contractAddress": null,
      "daFootprintGasScalar": "0x138",
      "l1BaseFeeScalar": "0x44d",
      "l1BlobBaseFee": "0x1",
      "l1BlobBaseFeeScalar": "0xa118b",
      "l1Fee": "0xb4",
      "l1GasPrice": "0x8",
      "l1GasUsed": "0xe1e"
    }
  ],
  "libraries": [],
  "pending": [],
  "returns": {},
  "timestamp": 1764453753551,
  "chain": 84532,
  "commit": "e3cf2b1"
}