{
  "transactions": [
    {
      "hash": "0x05eefbaff2b6859a4ab06fe341822822e0b5db7e5e827a9371de8e6ff7bf5f17",
      "transactionType": "CALL",
      "contractName": null,
      "contractAddress": "0xe315bb6ab55154e3d13468e59b668cbacc81a936",
      "function": "applyChainUpdates((uint64,bool,bytes,bytes,(bool,uint128,uint128),(bool,uint128,uint128))[])",
      "arguments": [
        "[(16015286601757825753, true, 0x0000000000000000000000001249b5954ee762e9940587d720d43a67f902b834, 0x000000000000000000000000b6a9f9b4dcf013c1255c4efae196a89ddc3944a3, (true, 1000000000000000000000000, 167), (true, 1000000000000000000000000, 167)), (3478487238524512106, true, 0x0000000000000000000000001249b5954ee762e9940587d720d43a67f902b834, 0x000000000000000000000000b6a9f9b4dcf013c1255c4efae196a89ddc3944a3, (true, 1000000000000000000000000, 167), (true, 1000000000000000000000000, 167))]"
      ],
      "transaction": {
        "from": "0x7789884c5c88ae84775f266045b96fd6cb5c734b",
        "to": "0xe315bb6ab55154e3d13468e59b668cbacc81a936",
        "gas": "0xc044a",
        "value": "0x0",
        "input": "0xdb6327dc0000000000000000000000000000000000000000000000000000000000000020000000000000000000000000000000000000000000000000000000000000000200000000000000000000000000000000000000000000000000000000000000400000000000000000000000000000000000000000000000000000000000000200000000000000000000000000000000000000000000000000de41ba4fc9d91ad9000000000000000000000000000000000000000000000000000000000000000100000000000000000000000000000000000000000000000000000000000001400000000000000000000000000000000000000000000000000000000000000180000000000000000000000000000000000000000000000000000000000000000100000000000000000000000000000000000000000000d3c21bcecceda100000000000000000000000000000000000000000000000000000000000000000000a7000000000000000000000000000000000000000000000000000000000000000100000000000000000000000000000000000000000000d3c21bcecceda100000000000000000000000000000000000000000000000000000000000000000000a700000000000000000000000000000000000000000000000000000000000000200000000000000000000000001249b5954ee762e9940587d720d43a67f902b8340000000000000000000000000000000000000000000000000000000000000020000000000000000000000000b6a9f9b4dcf013c1255c4efae196a89ddc3944a3000000000000000000000000000000000000000000000000304611b6affba76a000000000000000000000000000000000000000000000000000000000000000100000000000000000000000000000000000000000000000000000000000001400000000000000000000000000000000000000000000000000000000000000180000000000000000000000000000000000000000000000000000000000000000100000000000000000000000000000000000000000000d3c21bcecceda100000000000000000000000000000000000000000000000000000000000000000000a7000000000000000000000000000000000000000000000000000000000000000100000000000000000000000000000000000000000000d3c21bcecceda100000000000000000000000000000000000000000000000000000000000000000000a700000000000000000000000000000000000000000000000000000000000000200000000000000000000000001249b5954ee762e9940587d720d43a67f902b8340000000000000000000000000000000000000000000000000000000000000020000000000000000000000000b6a9f9b4dcf013c1255c4efae196a89ddc3944a3",
        "nonce": "0x78",
        "chainId": "0x14a34"
      },
      "additionalContracts": [],
      "isFixedGasLimit": false
    }
  ],
  "receipts": [
    {
      "status": "0x1",
      "cumulativeGasUsed": "0xbf8677",
      "logs": [
        {
          "address": "0xe315bb6ab55154e3d13468e59b668cbacc81a936",
          "topics": [
            "0x8d340f17e19058004c20453540862a9c62778504476f6756755cb33bcd6c38c2"
          ],
          "data": "0x000000000000000000000000000000000000000000000000de41ba4fc9d91ad90000000000000000000000000000000000000000000000000000000000000100000000000000000000000000000000000000000000000000000000000000000100000000000000000000000000000000000000000000d3c21bcecceda100000000000000000000000000000000000000000000000000000000000000000000a7000000000000000000000000000000000000000000000000000000000000000100000000000000000000000000000000000000000000d3c21bcecceda100000000000000000000000000000000000000000000000000000000000000000000a70000000000000000000000000000000000000000000000000000000000000020000000000000000000000000b6a9f9b4dcf013c1255c4efae196a89ddc3944a3",
          "blockHash": "0xcab865fdb0aaa16dbe5ec244805be2d033ef2ee41c848cebfb265964c256cdb2",
          "blockNumber": "0x203f880",
          "blockTimestamp": "0x691b4fe0",
          "transactionHash": "0x05eefbaff2b6859a4ab06fe341822822e0b5db7e5e827a9371de8e6ff7bf5f17",
          "transactionIndex": "0x14",
          "logIndex": "0x43",
          "removed": false
        },
        {
          "address": "0xe315bb6ab55154e3d13468e59b668cbacc81a936",
          "topics": [
            "0x8d340f17e19058004c20453540862a9c62778504476f6756755cb33bcd6c38c2"
          ],
          "data": "0x000000000000000000000000000000000000000000000000304611b6affba76a0000000000000000000000000000000000000000000000000000000000000100000000000000000000000000000000000000000000000000000000000000000100000000000000000000000000000000000000000000d3c21bcecceda100000000000000000000000000000000000000000000000000000000000000000000a7000000000000000000000000000000000000000000000000000000000000000100000000000000000000000000000000000000000000d3c21bcecceda100000000000000000000000000000000000000000000000000000000000000000000a70000000000000000000000000000000000000000000000000000000000000020000000000000000000000000b6a9f9b4dcf013c1255c4efae196a89ddc3944a3",
          "blockHash": "0xcab865fdb0aaa16dbe5ec244805be2d033ef2ee41c848cebfb265964c256cdb2",
          "blockNumber": "0x203f880",
          "blockTimestamp": "0x691b4fe0",
          "transactionHash": "0x05eefbaff2b6859a4ab06fe341822822e0b5db7e5e827a9371de8e6ff7bf5f17",
          "transactionIndex": "0x14",
          "logIndex": "0x44",
          "removed": false
        }
      ],
      "logsBloom": "0x00000000000000400000000000000000000000020000000000000000000000000000000000000080000000000000000000000000000000000004000000000000000000000000000000000000000000000000000000000000000000000000000000000000000000000000000000000000000000000000000000000000000000000000000000000000000000000000000000000000000000000000000000000000000000000000000000000000000000001000000000000000000000000000000000000000000000000000000000000000000000000000000000000000000000000000000000000000000000000000000000000000000000000100000000000000",
      "type": "0x2",
      "transactionHash": "0x05eefbaff2b6859a4ab06fe341822822e0b5db7e5e827a9371de8e6ff7bf5f17",
      "transactionIndex": "0x14",
      "blockHash": "0xcab865fdb0aaa16dbe5ec244805be2d033ef2ee41c848cebfb265964c256cdb2",
      "blockNumber": "0x203f880",
      "gasUsed": "0x83773",
      "effectiveGasPrice": "0xf428c",
      "from": "0x7789884c5c88ae84775f266045b96fd6cb5c734b",
      "to": "0xe315bb6ab55154e3d13468e59b668cbacc81a936",
      "contractAddress": null,
      "l1BaseFeeScalar": "0x44d",
      "l1BlobBaseFee": "0x1",
      "l1BlobBaseFeeScalar": "0xa118b",
      "l1Fee": "0x5e",
      "l1GasPrice": "0x10",
      "l1GasUsed": "0xc7f"
    }
  ],
  "libraries": [],
  "pending": [],
  "returns": {},
  "timestamp": 1763397599845,
  "chain": 84532,
  "commit": "6e57a2f"
}