{
  "transactions": [
    {
      "hash": null,
      "transactionType": "CALL",
      "contractName": "BurnMintTokenPool",
      "contractAddress": "0x1249b5954ee762e9940587d720d43a67f902b834",
      "function": "applyChainUpdates((uint64,bool,bytes,bytes,(bool,uint128,uint128),(bool,uint128,uint128))[])",
      "arguments": [
        "[(3478487238524512106, true, 0x0000000000000000000000001249b5954ee762e9940587d720d43a67f902b834, 0x000000000000000000000000b6a9f9b4dcf013c1255c4efae196a89ddc3944a3, (true, 1000000000000000000000000, 167), (true, 1000000000000000000000000, 167)), (10344971235874465080, true, 0x000000000000000000000000e315bb6ab55154e3d13468e59b668cbacc81a936, 0x000000000000000000000000593347e55d5a7deb7792108a3eb5c8bd6bb8eecc, (true, 1000000000000000000000000, 167), (true, 1000000000000000000000000, 167))]"
      ],
      "transaction": {
        "from": "0x7789884c5c88ae84775f266045b96fd6cb5c734b",
        "to": "0x1249b5954ee762e9940587d720d43a67f902b834",
        "gas": "0xc044a",
        "value": "0x0",
        "input": "0xdb6327dc0000000000000000000000000000000000000000000000000000000000000020000000000000000000000000000000000000000000000000000000000000000200000000000000000000000000000000000000000000000000000000000000400000000000000000000000000000000000000000000000000000000000000200000000000000000000000000000000000000000000000000304611b6affba76a000000000000000000000000000000000000000000000000000000000000000100000000000000000000000000000000000000000000000000000000000001400000000000000000000000000000000000000000000000000000000000000180000000000000000000000000000000000000000000000000000000000000000100000000000000000000000000000000000000000000d3c21bcecceda100000000000000000000000000000000000000000000000000000000000000000000a7000000000000000000000000000000000000000000000000000000000000000100000000000000000000000000000000000000000000d3c21bcecceda100000000000000000000000000000000000000000000000000000000000000000000a700000000000000000000000000000000000000000000000000000000000000200000000000000000000000001249b5954ee762e9940587d720d43a67f902b8340000000000000000000000000000000000000000000000000000000000000020000000000000000000000000b6a9f9b4dcf013c1255c4efae196a89ddc3944a30000000000000000000000000000000000000000000000008f90b8876dee6538000000000000000000000000000000000000000000000000000000000000000100000000000000000000000000000000000000000000000000000000000001400000000000000000000000000000000000000000000000000000000000000180000000000000000000000000000000000000000000000000000000000000000100000000000000000000000000000000000000000000d3c21bcecceda100000000000000000000000000000000000000000000000000000000000000000000a7000000000000000000000000000000000000000000000000000000000000000100000000000000000000000000000000000000000000d3c21bcecceda100000000000000000000000000000000000000000000000000000000000000000000a70000000000000000000000000000000000000000000000000000000000000020000000000000000000000000e315bb6ab55154e3d13468e59b668cbacc81a9360000000000000000000000000000000000000000000000000000000000000020000000000000000000000000593347e55d5a7deb7792108a3eb5c8bd6bb8eecc",
        "nonce": "0xb1",
        "chainId": "0xaa36a7"
      },
      "additionalContracts": [],
      "isFixedGasLimit": false
    }
  ],
  "receipts": [],
  "libraries": [],
  "pending": [],
  "returns": {},
  "timestamp": 1763451514370,
  "chain": 11155111,
  "commit": "2768c72"
}