{
  "transactions": [
    {
      "hash": null,
      "transactionType": "CALL",
      "contractName": "BurnMintTokenPool",
      "contractAddress": "0x8aab4f1a636bfa0fb97c87a66c7e64c37dd8d540",
      "function": "applyChainUpdates((uint64,bool,bytes,bytes,(bool,uint128,uint128),(bool,uint128,uint128))[])",
      "arguments": [
        "[(3478487238524512106, true, 0x0000000000000000000000003b1695df8bcfadd7c3fab176ea087c11df82e88a, 0x000000000000000000000000b6a9f9b4dcf013c1255c4efae196a89ddc3944a3, (true, 1000000000000000000000000, 167), (true, 1000000000000000000000000, 167)), (10344971235874465080, true, 0x0000000000000000000000008c08935318875e507eb8ac279f3d52dfffcbb8b0, 0x000000000000000000000000593347e55d5a7deb7792108a3eb5c8bd6bb8eecc, (true, 1000000000000000000000000, 167), (true, 1000000000000000000000000, 167))]"
      ],
      "transaction": {
        "from": "0x7789884c5c88ae84775f266045b96fd6cb5c734b",
        "to": "0x8aab4f1a636bfa0fb97c87a66c7e64c37dd8d540",
        "gas": "0xafd1f",
        "value": "0x0",
        "input": "0xdb6327dc0000000000000000000000000000000000000000000000000000000000000020000000000000000000000000000000000000000000000000000000000000000200000000000000000000000000000000000000000000000000000000000000400000000000000000000000000000000000000000000000000000000000000200000000000000000000000000000000000000000000000000304611b6affba76a000000000000000000000000000000000000000000000000000000000000000100000000000000000000000000000000000000000000000000000000000001400000000000000000000000000000000000000000000000000000000000000180000000000000000000000000000000000000000000000000000000000000000100000000000000000000000000000000000000000000d3c21bcecceda100000000000000000000000000000000000000000000000000000000000000000000a7000000000000000000000000000000000000000000000000000000000000000100000000000000000000000000000000000000000000d3c21bcecceda100000000000000000000000000000000000000000000000000000000000000000000a700000000000000000000000000000000000000000000000000000000000000200000000000000000000000003b1695df8bcfadd7c3fab176ea087c11df82e88a0000000000000000000000000000000000000000000000000000000000000020000000000000000000000000b6a9f9b4dcf013c1255c4efae196a89ddc3944a30000000000000000000000000000000000000000000000008f90b8876dee6538000000000000000000000000000000000000000000000000000000000000000100000000000000000000000000000000000000000000000000000000000001400000000000000000000000000000000000000000000000000000000000000180000000000000000000000000000000000000000000000000000000000000000100000000000000000000000000000000000000000000d3c21bcecceda100000000000000000000000000000000000000000000000000000000000000000000a7000000000000000000000000000000000000000000000000000000000000000100000000000000000000000000000000000000000000d3c21bcecceda100000000000000000000000000000000000000000000000000000000000000000000a700000000000000000000000000000000000000000000000000000000000000200000000000000000000000008c08935318875e507eb8ac279f3d52dfffcbb8b00000000000000000000000000000000000000000000000000000000000000020000000000000000000000000593347e55d5a7deb7792108a3eb5c8bd6bb8eecc",
        "nonce": "0xa0",
        "chainId": "0xaa36a7"
      },
      "additionalContracts": [],
      "isFixedGasLimit": false
    }
  ],
  "receipts": [],
  "libraries": [],
  "pending": [],
  "returns": {},
  "timestamp": 1763397518481,
  "chain": 11155111,
  "commit": "6e57a2f"
}