{
  "transactions": [
    {
      "hash": "0x651a12fe1f489fd032df4f1dd4c9c2583af083dfcfcf84899b9270e7c9ab8525",
      "transactionType": "CALL",
      "contractName": "BurnMintTokenPool",
      "contractAddress": "0x8aab4f1a636bfa0fb97c87a66c7e64c37dd8d540",
      "function": "applyChainUpdates((uint64,bool,bytes,bytes,(bool,uint128,uint128),(bool,uint128,uint128))[])",
      "arguments": [
        "[(3478487238524512106, true, 0x0000000000000000000000003b1695df8bcfadd7c3fab176ea087c11df82e88a, 0x000000000000000000000000b6a9f9b4dcf013c1255c4efae196a89ddc3944a3, (true, 1000000000000000000000000, 167), (true, 1000000000000000000000000, 167)), (10344971235874465080, true, 0x0000000000000000000000008c08935318875e507eb8ac279f3d52dfffcbb8b0, 0x000000000000000000000000593347e55d5a7deb7792108a3eb5c8bd6bb8eecc, (true, 1000000000000000000000000, 167), (true, 1000000000000000000000000, 167))]"
      ],
      "transaction": {
        "from": "0x7789884c5c88ae84775f266045b96fd6cb5c734b",
        "to": "0x8aab4f1a636bfa0fb97c87a66c7e64c37dd8d540",
        "gas": "0xafd1f",
        "value": "0x0",
        "input": "0xdb6327dc0000000000000000000000000000000000000000000000000000000000000020000000000000000000000000000000000000000000000000000000000000000200000000000000000000000000000000000000000000000000000000000000400000000000000000000000000000000000000000000000000000000000000200000000000000000000000000000000000000000000000000304611b6affba76a000000000000000000000000000000000000000000000000000000000000000100000000000000000000000000000000000000000000000000000000000001400000000000000000000000000000000000000000000000000000000000000180000000000000000000000000000000000000000000000000000000000000000100000000000000000000000000000000000000000000d3c21bcecceda100000000000000000000000000000000000000000000000000000000000000000000a7000000000000000000000000000000000000000000000000000000000000000100000000000000000000000000000000000000000000d3c21bcecceda100000000000000000000000000000000000000000000000000000000000000000000a700000000000000000000000000000000000000000000000000000000000000200000000000000000000000003b1695df8bcfadd7c3fab176ea087c11df82e88a0000000000000000000000000000000000000000000000000000000000000020000000000000000000000000b6a9f9b4dcf013c1255c4efae196a89ddc3944a30000000000000000000000000000000000000000000000008f90b8876dee6538000000000000000000000000000000000000000000000000000000000000000100000000000000000000000000000000000000000000000000000000000001400000000000000000000000000000000000000000000000000000000000000180000000000000000000000000000000000000000000000000000000000000000100000000000000000000000000000000000000000000d3c21bcecceda100000000000000000000000000000000000000000000000000000000000000000000a7000000000000000000000000000000000000000000000000000000000000000100000000000000000000000000000000000000000000d3c21bcecceda100000000000000000000000000000000000000000000000000000000000000000000a700000000000000000000000000000000000000000000000000000000000000200000000000000000000000008c08935318875e507eb8ac279f3d52dfffcbb8b00000000000000000000000000000000000000000000000000000000000000020000000000000000000000000593347e55d5a7deb7792108a3eb5c8bd6bb8eecc",
        "nonce": "0xa0",
        "chainId": "0xaa36a7"
      },
      "additionalContracts": [],
      "isFixedGasLimit": false
    }
  ],
  "receipts": [
    {
      "status": "0x1",
      "cumulativeGasUsed": "0x1fd69c8",
      "logs": [
        {
          "address": "0x8aab4f1a636bfa0fb97c87a66c7e64c37dd8d540",
          "topics": [
            "0x8d340f17e19058004c20453540862a9c62778504476f6756755cb33bcd6c38c2"
          ],
          "data": "0x000000000000000000000000000000000000000000000000304611b6affba76a0000000000000000000000000000000000000000000000000000000000000100000000000000000000000000000000000000000000000000000000000000000100000000000000000000000000000000000000000000d3c21bcecceda100000000000000000000000000000000000000000000000000000000000000000000a7000000000000000000000000000000000000000000000000000000000000000100000000000000000000000000000000000000000000d3c21bcecceda100000000000000000000000000000000000000000000000000000000000000000000a70000000000000000000000000000000000000000000000000000000000000020000000000000000000000000b6a9f9b4dcf013c1255c4efae196a89ddc3944a3",
          "blockHash": "0xef0c1cee4048cae8c4fae225e3a838d23dea664739018e470de60d3adc989814",
          "blockNumber": "0x933da7",
          "blockTimestamp": "0x691b4fbc",
          "transactionHash": "0x651a12fe1f489fd032df4f1dd4c9c2583af083dfcfcf84899b9270e7c9ab8525",
          "transactionIndex": "0x92",
          "logIndex": "0x33f",
          "removed": false
        },
        {
          "address": "0x8aab4f1a636bfa0fb97c87a66c7e64c37dd8d540",
          "topics": [
            "0x8d340f17e19058004c20453540862a9c62778504476f6756755cb33bcd6c38c2"
          ],
          "data": "0x0000000000000000000000000000000000000000000000008f90b8876dee65380000000000000000000000000000000000000000000000000000000000000100000000000000000000000000000000000000000000000000000000000000000100000000000000000000000000000000000000000000d3c21bcecceda100000000000000000000000000000000000000000000000000000000000000000000a7000000000000000000000000000000000000000000000000000000000000000100000000000000000000000000000000000000000000d3c21bcecceda100000000000000000000000000000000000000000000000000000000000000000000a70000000000000000000000000000000000000000000000000000000000000020000000000000000000000000593347e55d5a7deb7792108a3eb5c8bd6bb8eecc",
          "blockHash": "0xef0c1cee4048cae8c4fae225e3a838d23dea664739018e470de60d3adc989814",
          "blockNumber": "0x933da7",
          "blockTimestamp": "0x691b4fbc",
          "transactionHash": "0x651a12fe1f489fd032df4f1dd4c9c2583af083dfcfcf84899b9270e7c9ab8525",
          "transactionIndex": "0x92",
          "logIndex": "0x340",
          "removed": false
        }
      ],
      "logsBloom": "0x00000000000000400000000000000000000000000000000000000000000000000000000000000000000000000000000000000000000000000004000000000000000000000000000000000000000000000000200000000000000000000000000000000000000000000000000000000000000000000000000000000000000000000000000000000000000000000000000000000000000000000000000000000000000000000000000000000000000000000000000000000000000000000000000000000000000000000000000000000000000000000000000000080000000000000000000000000000000000000000800000000000000000000100000000000000",
      "type": "0x2",
      "transactionHash": "0x651a12fe1f489fd032df4f1dd4c9c2583af083dfcfcf84899b9270e7c9ab8525",
      "transactionIndex": "0x92",
      "blockHash": "0xef0c1cee4048cae8c4fae225e3a838d23dea664739018e470de60d3adc989814",
      "blockNumber": "0x933da7",
      "gasUsed": "0x7f4a7",
      "effectiveGasPrice": "0xf424c",
      "from": "0x7789884c5c88ae84775f266045b96fd6cb5c734b",
      "to": "0x8aab4f1a636bfa0fb97c87a66c7e64c37dd8d540",
      "contractAddress": null
    }
  ],
  "libraries": [],
  "pending": [],
  "returns": {},
  "timestamp": 1763397565603,
  "chain": 11155111,
  "commit": "6e57a2f"
}