{
  "transactions": [
    {
      "hash": "0xffae74a1588575418c65b3c3c431a29bb9e0d4ec9c50d83869a013c0329e56b8",
      "transactionType": "CALL",
      "contractName": null,
      "contractAddress": "0x12cb4945d866c83ce281f899b849e8e75588234c",
      "function": "applyChainUpdates((uint64,bool,bytes,bytes,(bool,uint128,uint128),(bool,uint128,uint128))[])",
      "arguments": [
        "[(3478487238524512106, true, 0x000000000000000000000000ceb8cf3b5dafa5c25a00df7c4aaca704302c14d2, 0x000000000000000000000000d2c7b8e20dae20ff8153b144da21b7b67e46f97a, (true, 1000000000000000000000000, 1000000000000000000), (true, 1000000000000000000000000, 1000000000000000000)), (10344971235874465080, true, 0x000000000000000000000000ceb8cf3b5dafa5c25a00df7c4aaca704302c14d2, 0x000000000000000000000000d2c7b8e20dae20ff8153b144da21b7b67e46f97a, (true, 1000000000000000000000000, 1000000000000000000), (true, 1000000000000000000000000, 1000000000000000000))]"
      ],
      "transaction": {
        "from": "0x7789884c5c88ae84775f266045b96fd6cb5c734b",
        "to": "0x12cb4945d866c83ce281f899b849e8e75588234c",
        "gas": "0xc0586",
        "value": "0x0",
        "input": "0xdb6327dc0000000000000000000000000000000000000000000000000000000000000020000000000000000000000000000000000000000000000000000000000000000200000000000000000000000000000000000000000000000000000000000000400000000000000000000000000000000000000000000000000000000000000200000000000000000000000000000000000000000000000000304611b6affba76a000000000000000000000000000000000000000000000000000000000000000100000000000000000000000000000000000000000000000000000000000001400000000000000000000000000000000000000000000000000000000000000180000000000000000000000000000000000000000000000000000000000000000100000000000000000000000000000000000000000000d3c21bcecceda10000000000000000000000000000000000000000000000000000000de0b6b3a7640000000000000000000000000000000000000000000000000000000000000000000100000000000000000000000000000000000000000000d3c21bcecceda10000000000000000000000000000000000000000000000000000000de0b6b3a76400000000000000000000000000000000000000000000000000000000000000000020000000000000000000000000ceb8cf3b5dafa5c25a00df7c4aaca704302c14d20000000000000000000000000000000000000000000000000000000000000020000000000000000000000000d2c7b8e20dae20ff8153b144da21b7b67e46f97a0000000000000000000000000000000000000000000000008f90b8876dee6538000000000000000000000000000000000000000000000000000000000000000100000000000000000000000000000000000000000000000000000000000001400000000000000000000000000000000000000000000000000000000000000180000000000000000000000000000000000000000000000000000000000000000100000000000000000000000000000000000000000000d3c21bcecceda10000000000000000000000000000000000000000000000000000000de0b6b3a7640000000000000000000000000000000000000000000000000000000000000000000100000000000000000000000000000000000000000000d3c21bcecceda10000000000000000000000000000000000000000000000000000000de0b6b3a76400000000000000000000000000000000000000000000000000000000000000000020000000000000000000000000ceb8cf3b5dafa5c25a00df7c4aaca704302c14d20000000000000000000000000000000000000000000000000000000000000020000000000000000000000000d2c7b8e20dae20ff8153b144da21b7b67e46f97a",
        "nonce": "0xe9",
        "chainId": "0xaa36a7"
      },
      "additionalContracts": [],
      "isFixedGasLimit": false
    }
  ],
  "receipts": [
    {
      "status": "0x1",
      "cumulativeGasUsed": "0x8196b2",
      "logs": [
        {
          "address": "0x12cb4945d866c83ce281f899b849e8e75588234c",
          "topics": [
            "0x8d340f17e19058004c20453540862a9c62778504476f6756755cb33bcd6c38c2"
          ],
          "data": "0x000000000000000000000000000000000000000000000000304611b6affba76a0000000000000000000000000000000000000000000000000000000000000100000000000000000000000000000000000000000000000000000000000000000100000000000000000000000000000000000000000000d3c21bcecceda10000000000000000000000000000000000000000000000000000000de0b6b3a7640000000000000000000000000000000000000000000000000000000000000000000100000000000000000000000000000000000000000000d3c21bcecceda10000000000000000000000000000000000000000000000000000000de0b6b3a76400000000000000000000000000000000000000000000000000000000000000000020000000000000000000000000d2c7b8e20dae20ff8153b144da21b7b67e46f97a",
          "blockHash": "0x94ffaf8055bf96c0fbcc59c18ca929674d867a279bbea6f382f49bf4c95aedca",
          "blockNumber": "0x948845",
          "blockTimestamp": "0x692b6d04",
          "transactionHash": "0xffae74a1588575418c65b3c3c431a29bb9e0d4ec9c50d83869a013c0329e56b8",
          "transactionIndex": "0x2a",
          "logIndex": "0x4e",
          "removed": false
        },
        {
          "address": "0x12cb4945d866c83ce281f899b849e8e75588234c",
          "topics": [
            "0x8d340f17e19058004c20453540862a9c62778504476f6756755cb33bcd6c38c2"
          ],
          "data": "0x0000000000000000000000000000000000000000000000008f90b8876dee65380000000000000000000000000000000000000000000000000000000000000100000000000000000000000000000000000000000000000000000000000000000100000000000000000000000000000000000000000000d3c21bcecceda10000000000000000000000000000000000000000000000000000000de0b6b3a7640000000000000000000000000000000000000000000000000000000000000000000100000000000000000000000000000000000000000000d3c21bcecceda10000000000000000000000000000000000000000000000000000000de0b6b3a76400000000000000000000000000000000000000000000000000000000000000000020000000000000000000000000d2c7b8e20dae20ff8153b144da21b7b67e46f97a",
          "blockHash": "0x94ffaf8055bf96c0fbcc59c18ca929674d867a279bbea6f382f49bf4c95aedca",
          "blockNumber": "0x948845",
          "blockTimestamp": "0x692b6d04",
          "transactionHash": "0xffae74a1588575418c65b3c3c431a29bb9e0d4ec9c50d83869a013c0329e56b8",
          "transactionIndex": "0x2a",
          "logIndex": "0x4f",
          "removed": false
        }
      ],
      "logsBloom": "0x00000000000000400000000000000000000000000000000000000000000000000000000000000000004000000000000000000000000000000004000000000000000000000000000000004000000000000000000000000000000000000000000000000000000000000000000000000000000000000000000000000000000000000000000000000000000000000000000000000000000000000000000000000000000000000000000000000000000000000000000000000000000000000000000000000000000000000000000000000000000000000000000000000000000000000000000000000000000000000000000000000000000080000100000000000000",
      "type": "0x2",
      "transactionHash": "0xffae74a1588575418c65b3c3c431a29bb9e0d4ec9c50d83869a013c0329e56b8",
      "transactionIndex": "0x2a",
      "blockHash": "0x94ffaf8055bf96c0fbcc59c18ca929674d867a279bbea6f382f49bf4c95aedca",
      "blockNumber": "0x948845",
      "gasUsed": "0x8384b",
      "effectiveGasPrice": "0xf4248",
      "from": "0x7789884c5c88ae84775f266045b96fd6cb5c734b",
      "to": "0x12cb4945d866c83ce281f899b849e8e75588234c",
      "contractAddress": null
    }
  ],
  "libraries": [],
  "pending": [],
  "returns": {},
  "timestamp": 1764453637157,
  "chain": 11155111,
  "commit": "e3cf2b1"
}