{
  "transactions": [
    {
      "hash": "0xefc556ae75db434a8cfe5f9d0cc632a3a789acfef8d5ebfa6f546061cb7e2646",
      "transactionType": "CALL",
      "contractName": null,
      "contractAddress": "0x98c7955fabb14d83d874b516f4c849f4e1fa0a7b",
      "function": "applyChainUpdates((uint64,bool,bytes,bytes,(bool,uint128,uint128),(bool,uint128,uint128))[])",
      "arguments": [
        "[(3478487238524512106, true, 0x000000000000000000000000b0cb10e3872a9f955758893e135a0c3579ea0187, 0x0000000000000000000000003c887dab595c53a6d2093ac82a400f41062d734c, (true, 1000000000000000000000000, 167), (true, 1000000000000000000000000, 167)), (10344971235874465080, true, 0x00000000000000000000000042745e532f1e35154e42dbaa8402f4abe3ffbc97, 0x00000000000000000000000066a55f63f8efa41d791bd747608556791443ccd2, (true, 1000000000000000000000000, 167), (true, 1000000000000000000000000, 167))]"
      ],
      "transaction": {
        "from": "0x7789884c5c88ae84775f266045b96fd6cb5c734b",
        "to": "0x98c7955fabb14d83d874b516f4c849f4e1fa0a7b",
        "gas": "0xc044a",
        "value": "0x0",
        "input": "0xdb6327dc0000000000000000000000000000000000000000000000000000000000000020000000000000000000000000000000000000000000000000000000000000000200000000000000000000000000000000000000000000000000000000000000400000000000000000000000000000000000000000000000000000000000000200000000000000000000000000000000000000000000000000304611b6affba76a000000000000000000000000000000000000000000000000000000000000000100000000000000000000000000000000000000000000000000000000000001400000000000000000000000000000000000000000000000000000000000000180000000000000000000000000000000000000000000000000000000000000000100000000000000000000000000000000000000000000d3c21bcecceda100000000000000000000000000000000000000000000000000000000000000000000a7000000000000000000000000000000000000000000000000000000000000000100000000000000000000000000000000000000000000d3c21bcecceda100000000000000000000000000000000000000000000000000000000000000000000a70000000000000000000000000000000000000000000000000000000000000020000000000000000000000000b0cb10e3872a9f955758893e135a0c3579ea018700000000000000000000000000000000000000000000000000000000000000200000000000000000000000003c887dab595c53a6d2093ac82a400f41062d734c0000000000000000000000000000000000000000000000008f90b8876dee6538000000000000000000000000000000000000000000000000000000000000000100000000000000000000000000000000000000000000000000000000000001400000000000000000000000000000000000000000000000000000000000000180000000000000000000000000000000000000000000000000000000000000000100000000000000000000000000000000000000000000d3c21bcecceda100000000000000000000000000000000000000000000000000000000000000000000a7000000000000000000000000000000000000000000000000000000000000000100000000000000000000000000000000000000000000d3c21bcecceda100000000000000000000000000000000000000000000000000000000000000000000a7000000000000000000000000000000000000000000000000000000000000002000000000000000000000000042745e532f1e35154e42dbaa8402f4abe3ffbc97000000000000000000000000000000000000000000000000000000000000002000000000000000000000000066a55f63f8efa41d791bd747608556791443ccd2",
        "nonce": "0x6a",
        "chainId": "0xaa36a7"
      },
      "additionalContracts": [],
      "isFixedGasLimit": false
    }
  ],
  "receipts": [
    {
      "status": "0x1",
      "cumulativeGasUsed": "0xb93360",
      "logs": [
        {
          "address": "0x98c7955fabb14d83d874b516f4c849f4e1fa0a7b",
          "topics": [
            "0x8d340f17e19058004c20453540862a9c62778504476f6756755cb33bcd6c38c2"
          ],
          "data": "0x000000000000000000000000000000000000000000000000304611b6affba76a0000000000000000000000000000000000000000000000000000000000000100000000000000000000000000000000000000000000000000000000000000000100000000000000000000000000000000000000000000d3c21bcecceda100000000000000000000000000000000000000000000000000000000000000000000a7000000000000000000000000000000000000000000000000000000000000000100000000000000000000000000000000000000000000d3c21bcecceda100000000000000000000000000000000000000000000000000000000000000000000a700000000000000000000000000000000000000000000000000000000000000200000000000000000000000003c887dab595c53a6d2093ac82a400f41062d734c",
          "blockHash": "0x793e051fcceb30e3e7f19f859cd7b073b10c45e5f97d5391c028bc065d7e90cd",
          "blockNumber": "0x929c1b",
          "blockTimestamp": "0x6913695c",
          "transactionHash": "0xefc556ae75db434a8cfe5f9d0cc632a3a789acfef8d5ebfa6f546061cb7e2646",
          "transactionIndex": "0x49",
          "logIndex": "0x75",
          "removed": false
        },
        {
          "address": "0x98c7955fabb14d83d874b516f4c849f4e1fa0a7b",
          "topics": [
            "0x8d340f17e19058004c20453540862a9c62778504476f6756755cb33bcd6c38c2"
          ],
          "data": "0x0000000000000000000000000000000000000000000000008f90b8876dee65380000000000000000000000000000000000000000000000000000000000000100000000000000000000000000000000000000000000000000000000000000000100000000000000000000000000000000000000000000d3c21bcecceda100000000000000000000000000000000000000000000000000000000000000000000a7000000000000000000000000000000000000000000000000000000000000000100000000000000000000000000000000000000000000d3c21bcecceda100000000000000000000000000000000000000000000000000000000000000000000a7000000000000000000000000000000000000000000000000000000000000002000000000000000000000000066a55f63f8efa41d791bd747608556791443ccd2",
          "blockHash": "0x793e051fcceb30e3e7f19f859cd7b073b10c45e5f97d5391c028bc065d7e90cd",
          "blockNumber": "0x929c1b",
          "blockTimestamp": "0x6913695c",
          "transactionHash": "0xefc556ae75db434a8cfe5f9d0cc632a3a789acfef8d5ebfa6f546061cb7e2646",
          "transactionIndex": "0x49",
          "logIndex": "0x76",
          "removed": false
        }
      ],
      "logsBloom": "0x00000000000000400000000000000000000000000000000000000000000000000000000000000000000000000000000000000000000020000004000000000000000000000000000000000000000000000000000000000000000000000000000000800000000000000000000000000000000000000000000000000000000000000000000000000000000000000000000000000000000000000000000000000000000000000000000000000000000000000000000020000000000000000000000000000000000000000000000000000000000000000000000000000000000000000000000000000000000000000000000000000000000000000100000000000000",
      "type": "0x2",
      "transactionHash": "0xefc556ae75db434a8cfe5f9d0cc632a3a789acfef8d5ebfa6f546061cb7e2646",
      "transactionIndex": "0x49",
      "blockHash": "0x793e051fcceb30e3e7f19f859cd7b073b10c45e5f97d5391c028bc065d7e90cd",
      "blockNumber": "0x929c1b",
      "gasUsed": "0x83773",
      "effectiveGasPrice": "0x7a31f",
      "from": "0x7789884c5c88ae84775f266045b96fd6cb5c734b",
      "to": "0x98c7955fabb14d83d874b516f4c849f4e1fa0a7b",
      "contractAddress": null
    }
  ],
  "libraries": [],
  "pending": [],
  "returns": {},
  "timestamp": 1762879837665,
  "chain": 11155111,
  "commit": "98074a6"
}